S0110000566F6C746D657465722E7372656351
S11300000C9434000C9449000C9449000C9449005D
S11300100C9449000C9449000C9449000C94490038
S11300200C9449000C9449000C9449000C94490028
S11300300C9449000C9449000C9449000C94490018
S11300400C9449000C9449000C9449000C94490008
S11300500C9449000C9449000C9449000C944900F8
S11300600C9449000C94490011241FBECFEFD8E032
S1130070DEBFCDBF11E0A0E0B1E0ECE5FCE002C0E2
S113008005900D92A632B107D9F70E94AC000C94EA
S11300902C060C94000085B984E08BB983EC99E0BC
S11300A00197F1F700C000001BB883EC99E00197B9
S11300B0F1F700C00000089585B985E08BB983ECA1
S11300C099E00197F1F700C0000081E08BB983EC5F
S11300D099E00197F1F700C000000895CF93DF93F2
S11300E0EC018881882331F021960E945C0089917B
S11300F08111FBCFDF91CF91089588E30E944B00DB
S11301008CE00E944B0081E00E944B0083E80E9437
S11301104B0080E091E00E946E0080EC0E944B0056
S1130120089580E480937C0086E880937A000895A3
S1130130ECE7F0E090818F70907F892B8083EAE771
S1130140F0E0808180648083808186FDFDCF809192
S11301507800909179000895CF93DF93CDB7DEB7FF
S113016060970FB6F894DEBF0FBECDBF8FEF84B992
S11301708AB90E9491000F2EFDE18F2EF1E09F2E8F
S1130180F02D8E010F5F1F4F0F2EF4E1AF2EF1E023
S1130190BF2EF02D0F2EFAE02F2EF1E03F2EF02D82
S11301A00E947D0087E00E949800BC0180E090E0FE
S11301B00E94590220E030E040EA50E40E94E70245
S11301C020E030EC4FE754E40E94B1012B013C01E4
S11301D00E9423026B017C01072E000C880B990BF3
S11301E00E945B029B01AC01C301B2010E94440165
S11301F020E030E04AE754E40E94E7020E94230230
S1130200862F972F8A30910584F47F936F93DF9222
S1130210CF923F922F921F930F930E9454030FB6D5
S1130220F894DEBF0FBECDBF22C08436910584F49E
S11302307F936F93DF92CF92BF92AF921F930F93EE
S11302400E9454030FB6F894DEBF0FBECDBF0FC09B
S11302507F936F93DF92CF929F928F921F930F930E
S11302600E9454030FB6F894DEBF0FBECDBFC80181
S11302700E946E009FE926E881E091502040804072
S1130280E1F700C000008CCF5058BB27AA270E947A
S11302905C010C94AD020E949F0238F00E94A602F9
S11302A020F039F49F3F19F426F40C949C020EF4C8
S11302B0E095E7FB0C949602E92F0E94BE0258F3E6
S11302C0BA17620773078407950720F079F4A6F537
S11302D00C94E0020EF4E0950B2EBA2FA02D0B0126
S11302E0B90190010C01CA01A0011124FF27591B77
S11302F099F0593F50F4503E68F11A16F040A22F7D
S1130300232F342F4427585FF3CF469537952795ED
S1130310A795F0405395C9F77EF41F16BA0B620BEC
S1130320730B840BBAF09150A1F0FF0FBB1F661F33
S1130330771F881FC2F70EC0BA0F621F731F841F76
S113034048F4879577956795B795F7959E3F08F09C
S1130350B0CF9395880F08F09927EE0F979587955E
S113036008950E94C5010C94AD020E94A60258F0A3
S11303700E949F0240F029F45F3F29F00C949602FA
S113038051110C94E1020C949C020E94BE0268F389
S11303909923B1F3552391F3951B550BBB27AA273A
S11303A062177307840738F09F5F5F4F220F331F74
S11303B0441FAA1FA9F335D00E2E3AF0E0E832D03C
S11303C091505040E695001CCAF72BD0FE2F29D03F
S11303D0660F771F881FBB1F261737074807AB0711
S11303E0B0E809F0BB0B802DBF01FF2793585F4F86
S11303F03AF09E3F510578F00C9496020C94E10279
S11304005F3FE4F3983ED4F3869577956795B79567
S1130410F7959F5FC9F7880F911D9695879597F972
S11304200895E1E0660F771F881FBB1F62177307EB
S11304308407BA0720F0621B730B840BBA0BEE1F00
S113044088F7E09508950E942A026894B1110C94EB
S1130450E10208950E94C60288F09F5798F0B92FD0
S11304609927B751B0F0E1F0660F771F881F991FE5
S11304701AF0BA95C9F714C0B13091F00E94E002A5
S1130480B1E008950C94E002672F782F8827B85FB5
S113049039F0B93FCCF3869577956795B395D9F73D
S11304A03EF490958095709561957F4F8F4F9F4F47
S11304B00895E89409C097FB3EF490958095709553
S11304C061957F4F8F4F9F4F9923A9F0F92F96E99C
S11304D0BB279395F695879577956795B795F11111
S11304E0F8CFFAF4BB0F11F460FF1BC06F5F7F4FAE
S11304F08F4F9F4F16C0882311F096E911C07723C0
S113050021F09EE8872F762F05C0662371F096E8C8
S1130510862F70E060E02AF09A95660F771F881F97
S1130520DAF7880F9695879597F9089597F99F6755
S113053080E870E060E008959FEF80EC0895002467
S11305400A941616170618060906089500240A9434
S113055012161306140605060895092E0394000CBA
S113056011F4882352F0BB0F40F4BF2B11F460FF49
S113057004C06F5F7F4F8F4F9F4F089557FD905872
S1130580440F551F59F05F3F71F04795880F97FB53
S1130590991F61F09F3F79F087950895121613060D
S11305A01406551FF2CF4695F1DF08C0161617063C
S11305B01806991FF1CF8695710561050894089571
S11305C0E894BB2766277727CB0197F908950E9403
S11305D0FA020C94AD020E949F0238F00E94A60217
S11305E020F0952311F00C9496020C949C02112493
S11305F00C94E1020E94BE0270F3959FC1F3950F23
S113060050E0551F629FF001729FBB27F00DB11D92
S1130610639FAA27F00DB11DAA1F649F6627B00D22
S1130620A11D661F829F2227B00DA11D621F739F0B
S1130630B00DA11D621F839FA00D611D221F749F19
S11306403327A00D611D231F849F600D211D822F60
S1130650762F6A2F11249F5750409AF0F1F0882387
S11306604AF0EE0FFF1FBB1F661F771F881F9150B4
S11306705040A9F79E3F510580F00C9496020C94CB
S1130680E1025F3FE4F3983ED4F38695779567954E
S1130690B795F795E7959F5FC1F7FE2B880F911DDE
S11306A09695879597F90895AEE0B0E0EAE5F3E012
S11306B00C9403060D891E8986E08C831A830983B2
S11306C08FEF9FE79E838D83AE01475E5F4F6F89F7
S11306D0788DCE0101960E9477032F813885F80129
S11306E0E20FF31F10822E96E4E00C941F06ACE098
S11306F0B0E0EDE7F3E00C94F5057C016B018A01B1
S1130700FC0117821682838181FFBDC1CE0101964F
S11307104C01F7019381F60193FD859193FF81913B
S11307206F01882309F4ABC1853239F493FD8591B7
S113073093FF81916F01853229F4B70190E00E9403
S11307405F05E7CF512C312C20E02032A0F48B320E
S113075069F030F4803259F0833269F420612CC09E
S11307608D3239F0803339F4216026C02260246050
S113077023C0286021C027FD27C030ED380F3A3050
S113078078F426FF06C0FAE05F9E300D1124532E44
S113079013C08AE0389E300D1124332E20620CC021
S11307A08E3221F426FD6BC1206406C08C3611F410
S11307B0206802C0883641F4F60193FD859193FFC9
S11307C081916F018111C1CF982F9F7D95549330F2
S11307D028F40C5F1F4FFFE3F9830DC0833631F01B
S11307E0833771F0833509F05BC022C0F801808142
S11307F089830E5F1F4F44244394512C540115C028
S11308003801F2E06F0E711CF801A080B18026FF60
S113081003C0652D70E002C06FEF7FEFC5012C8728
S11308200E9454052C0183012C852F77222E17C09A
S11308303801F2E06F0E711CF801A080B18026FF30
S113084003C0652D70E002C06FEF7FEFC5012C87F8
S11308500E9449052C012C852068222E830123FC4B
S11308601BC0832D90E048165906B0F4B70180E20E
S113087090E00E945F053A94F4CFF50127FC85913E
S113088027FE81915F01B70190E00E945F0531105E
S11308903A94F1E04F1A51084114510471F7E5C03C
S11308A0843611F0893639F5F80127FF07C06081D5
S11308B07181828193810C5F1F4F08C060817181B7
S11308C0072E000C880B990B0E5F1F4F2F76722E8C
S11308D097FF09C090958095709561957F4F8F4FD4
S11308E09F4F2068722E2AE030E0A4010E949705F1
S11308F0A82EA81844C0853729F42F7EB22E2AE0EA
S113090030E025C0F22FF97FBF2E8F36C1F018F4E6
S1130910883579F0B4C0803719F0883721F0AFC03A
S11309202F2F2061B22EB4FE0DC08B2D8460B82E03
S113093009C024FF0AC09F2F9660B92E06C028E084
S113094030E005C020E130E002C020E132E0F801EF
S1130950B7FE07C060817181828193810C5F1F4F54
S113096006C06081718180E090E00E5F1F4FA4019A
S11309700E949705A82EA818FB2DFF777F2E76FEE0
S11309800BC0372D3E7FA51450F474FE0AC072FCD0
S113099008C0372D3E7E05C0BA2C372D03C0BA2CB3
S11309A001C0B52C34FF0DC0FE01EA0DF11D80819C
S11309B0803311F4397E09C032FF06C0B394B39476
S11309C004C0832F867809F0B39433FD13C030FF3D
S11309D006C05A2CB31418F4530C5B18B32CB3147C
S11309E068F4B70180E290E03C870E945F05B3940D
S11309F03C85F5CFB31410F43B1801C0312C34FFFF
S1130A0012C0B70180E390E03C870E945F053C85FB
S1130A1032FF17C031FD03C088E790E002C088E5CB
S1130A2090E0B7010CC0832F867859F031FF02C0E3
S1130A308BE201C080E237FD8DE2B70190E00E94B5
S1130A405F05A51438F4B70180E390E00E945F05C8
S1130A505A94F7CFAA94F401EA0DF11D8081B701ED
S1130A6090E00E945F05A110F5CF332009F451CE28
S1130A70B70180E290E00E945F053A94F6CFF70157
S1130A808681978102C08FEF9FEF2C96E2E10C9450
S1130A901106FC010590615070400110D8F7809553
S1130AA090958E0F9F1F0895FC0161507040019036
S1130AB00110D8F7809590958E0F9F1F08950F937E
S1130AC01F93CF93DF93FB01238121FD03C08FEF9D
S1130AD09FEF28C022FF16C04681578124813581AB
S1130AE04217530744F4A081B1819D012F5F3F4F0A
S1130AF0318320838C93268137812F5F3F4F378347
S1130B00268310C0EB01092F182F0084F185E02DF6
S1130B100995892BE1F68E819F8101969F838E83AF
S1130B20812F902FDF91CF911F910F910895FA019A
S1130B30AA27283051F1203181F1E8946F936E7F18
S1130B406E5F7F4F8F4F9F4FAF4FB1E03ED0B4E009
S1130B503CD0670F781F891F9A1FA11D680F791F4A
S1130B608A1F911DA11D6A0F711D811D911DA11D5B
S1130B7020D009F468943F912AE0269F112430196B
S1130B80305D3193DEF6CF010895462F4770405D06
S1130B904193B3E00FD0C9F7F6CF462F4F70405DB5
S1130BA04A3318F0495D31FD4052419302D0A9F710
S1130BB0EACFB4E0A6959795879577956795BA950A
S1130BC0C9F700976105710508959B01AC010A2ED0
S1130BD006945795479537952795BA95C9F7620FA7
S1130BE0731F841F951FA01D08952F923F924F924B
S1130BF05F926F927F928F929F92AF92BF92CF92A9
S1130C00DF92EF92FF920F931F93CF93DF93CDB7B1
S1130C10DEB7CA1BDB0B0FB6F894DEBF0FBECDBF29
S1130C2009942A88398848885F846E847D848C84FA
S1130C309B84AA84B984C884DF80EE80FD800C8103
S1130C401B81AA81B981CE0FD11D0FB6F894DEBFE6
S10F0C500FBECDBFED010895F894FFCF56
S1130C5C566F6C746D657465720025752E30302575
S1130C6C7520560025752E30257520560025752EB9
S1090C7C2575205600005E
S9030000FC
